S00C00004C6162332E73726563D6
S11300000C942A000C9434000C9434000C943400A6
S11300100C9434000C9434000C9434000C9434008C
S11300200C9434000C9434000C9434000C9434007C
S11300300C9434000C9434000C9434000C9434006C
S11300400C9434000C9434000C9434000C9434005C
S11300500C94340011241FBECFE5D8E0DEBFCDBF21
S11300600E9436000C9462000C94000081B38E7FD1
S113007081BB82B38E7F82BB81B3806181BB81B33C
S1130080806281BB80B3817080BB8130D9F782B339
S1130090806182BB82B3806282BB2FEF89E698E1E4
S11300A0215080409040E1F700C0000082B38F7E71
S11300B082BB82B38F7D82BB82B3817082BB81306D
S10B00C0D9F3E0CFF894FFCF5F
S9030000FC
