S00C00004C6162322E73726563D7
S11300000C942A000C9434000C9434000C943400A6
S11300100C9434000C9434000C9434000C9434008C
S11300200C9434000C9434000C9434000C9434007C
S11300300C9434000C9434000C9434000C9434006C
S11300400C9434000C9434000C9434000C9434005C
S11300500C94340011241FBECFE5D8E0DEBFCDBF21
S11300600E9436000C948A000C94000080EE81BB40
S113007082B38F7D82BB82B38F7B82BB82B38F7747
S113008082BB82B3806282BB2FEF84E39CE0215069
S113009080409040E1F700C0000082B3806482BBDE
S11300A02FEF84E39CE0215080409040E1F700C0B2
S11300B0000082B3806882BB2FEF84E39CE0215070
S11300C080409040E1F700C0000082B38F7782BB8C
S11300D02FEF84E39CE0215080409040E1F700C082
S11300E0000082B38F7B82BB2FEF84E39CE021501E
S11300F080409040E1F700C0000082B38F7D82BB56
S11301002FEF84E39CE0215080409040E1F700C051
S10B01100000B7CFF894FFCF03
S9030000FC
