S00C00004C6162342E73726563D5
S11300000C942A000C9434000C9434000C943400A6
S11300100C9434000C9434000C9434000C9434008C
S11300200C9434000C9434000C9434000C9434007C
S11300300C9434000C9434000C9434000C9434006C
S11300400C9434000C9434000C9434000C9434005C
S11300500C94340011241FBECFE5D8E0DEBFCDBF21
S11300600E9436000C9466000C9400008FEF84BB51
S113007040E029C050E1459FC00111248D6085BB3B
S11300808FE798E351E0815090405040E1F700C081
S1130090000050E1359FC0011124876085BB8FE7C4
S11300A098E351E0815090405040E1F700C00000D7
S11300B02F5F01C020E02A30E8F23F5F01C030E04A
S11300C03A30C0F34F5F4A30D0F3D2CFF894FFCF29
S9030000FC
